{
	"data": {
		"bytecode": {
			"linkReferences": {},
			"object": "6080604052348015600e575f80fd5b506103e68061001c5f395ff3fe608060405234801561000f575f80fd5b5060043610610034575f3560e01c8063157b516714610038578063446a45b714610042575b5f80fd5b61004061004c565b005b61004a61008e565b005b7fb60e72ccf6d57ab53eb84d7e94a9545806ed7f93c4d5673f11a64f03471e584e601f60405161007c91906101e9565b60405180910390a161008c6100d0565b565b7fb60e72ccf6d57ab53eb84d7e94a9545806ed7f93c4d5673f11a64f03471e584e601f6040516100be919061025f565b60405180910390a16100ce61010a565b565b7fb60e72ccf6d57ab53eb84d7e94a9545806ed7f93c4d5673f11a64f03471e584e6015604051610100919061030e565b60405180910390a1565b7fb60e72ccf6d57ab53eb84d7e94a9545806ed7f93c4d5673f11a64f03471e584e601560405161013a9190610384565b60405180910390a1565b5f82825260208201905092915050565b7f422066756e3200000000000000000000000000000000000000000000000000005f82015250565b5f610188600683610144565b915061019382610154565b602082019050919050565b5f819050919050565b5f819050919050565b5f819050919050565b5f6101d36101ce6101c98461019e565b6101b0565b6101a7565b9050919050565b6101e3816101b9565b82525050565b5f6040820190508181035f8301526102008161017c565b905061020f60208301846101da565b92915050565b7f422066756e3100000000000000000000000000000000000000000000000000005f82015250565b5f610249600683610144565b915061025482610215565b602082019050919050565b5f6040820190508181035f8301526102768161023d565b905061028560208301846101da565b92915050565b7f412066756e3200000000000000000000000000000000000000000000000000005f82015250565b5f6102bf600683610144565b91506102ca8261028b565b602082019050919050565b5f819050919050565b5f6102f86102f36102ee846102d5565b6101b0565b6101a7565b9050919050565b610308816102de565b82525050565b5f6040820190508181035f830152610325816102b3565b905061033460208301846102ff565b92915050565b7f412066756e3100000000000000000000000000000000000000000000000000005f82015250565b5f61036e600683610144565b91506103798261033a565b602082019050919050565b5f6040820190508181035f83015261039b81610362565b90506103aa60208301846102ff565b9291505056fea2646970667358221220847cc59c90a1cdd064bad1f7ec1fb6b91ff6b150bec3ea70a4e832bf5644a9ba64736f6c634300081a0033",
			"opcodes": "PUSH1 0x80 PUSH1 0x40 MSTORE CALLVALUE DUP1 ISZERO PUSH1 0xE JUMPI PUSH0 DUP1 REVERT JUMPDEST POP PUSH2 0x3E6 DUP1 PUSH2 0x1C PUSH0 CODECOPY PUSH0 RETURN INVALID PUSH1 0x80 PUSH1 0x40 MSTORE CALLVALUE DUP1 ISZERO PUSH2 0xF JUMPI PUSH0 DUP1 REVERT JUMPDEST POP PUSH1 0x4 CALLDATASIZE LT PUSH2 0x34 JUMPI PUSH0 CALLDATALOAD PUSH1 0xE0 SHR DUP1 PUSH4 0x157B5167 EQ PUSH2 0x38 JUMPI DUP1 PUSH4 0x446A45B7 EQ PUSH2 0x42 JUMPI JUMPDEST PUSH0 DUP1 REVERT JUMPDEST PUSH2 0x40 PUSH2 0x4C JUMP JUMPDEST STOP JUMPDEST PUSH2 0x4A PUSH2 0x8E JUMP JUMPDEST STOP JUMPDEST PUSH32 0xB60E72CCF6D57AB53EB84D7E94A9545806ED7F93C4D5673F11A64F03471E584E PUSH1 0x1F PUSH1 0x40 MLOAD PUSH2 0x7C SWAP2 SWAP1 PUSH2 0x1E9 JUMP JUMPDEST PUSH1 0x40 MLOAD DUP1 SWAP2 SUB SWAP1 LOG1 PUSH2 0x8C PUSH2 0xD0 JUMP JUMPDEST JUMP JUMPDEST PUSH32 0xB60E72CCF6D57AB53EB84D7E94A9545806ED7F93C4D5673F11A64F03471E584E PUSH1 0x1F PUSH1 0x40 MLOAD PUSH2 0xBE SWAP2 SWAP1 PUSH2 0x25F JUMP JUMPDEST PUSH1 0x40 MLOAD DUP1 SWAP2 SUB SWAP1 LOG1 PUSH2 0xCE PUSH2 0x10A JUMP JUMPDEST JUMP JUMPDEST PUSH32 0xB60E72CCF6D57AB53EB84D7E94A9545806ED7F93C4D5673F11A64F03471E584E PUSH1 0x15 PUSH1 0x40 MLOAD PUSH2 0x100 SWAP2 SWAP1 PUSH2 0x30E JUMP JUMPDEST PUSH1 0x40 MLOAD DUP1 SWAP2 SUB SWAP1 LOG1 JUMP JUMPDEST PUSH32 0xB60E72CCF6D57AB53EB84D7E94A9545806ED7F93C4D5673F11A64F03471E584E PUSH1 0x15 PUSH1 0x40 MLOAD PUSH2 0x13A SWAP2 SWAP1 PUSH2 0x384 JUMP JUMPDEST PUSH1 0x40 MLOAD DUP1 SWAP2 SUB SWAP1 LOG1 JUMP JUMPDEST PUSH0 DUP3 DUP3 MSTORE PUSH1 0x20 DUP3 ADD SWAP1 POP SWAP3 SWAP2 POP POP JUMP JUMPDEST PUSH32 0x422066756E320000000000000000000000000000000000000000000000000000 PUSH0 DUP3 ADD MSTORE POP JUMP JUMPDEST PUSH0 PUSH2 0x188 PUSH1 0x6 DUP4 PUSH2 0x144 JUMP JUMPDEST SWAP2 POP PUSH2 0x193 DUP3 PUSH2 0x154 JUMP JUMPDEST PUSH1 0x20 DUP3 ADD SWAP1 POP SWAP2 SWAP1 POP JUMP JUMPDEST PUSH0 DUP2 SWAP1 POP SWAP2 SWAP1 POP JUMP JUMPDEST PUSH0 DUP2 SWAP1 POP SWAP2 SWAP1 POP JUMP JUMPDEST PUSH0 DUP2 SWAP1 POP SWAP2 SWAP1 POP JUMP JUMPDEST PUSH0 PUSH2 0x1D3 PUSH2 0x1CE PUSH2 0x1C9 DUP5 PUSH2 0x19E JUMP JUMPDEST PUSH2 0x1B0 JUMP JUMPDEST PUSH2 0x1A7 JUMP JUMPDEST SWAP1 POP SWAP2 SWAP1 POP JUMP JUMPDEST PUSH2 0x1E3 DUP2 PUSH2 0x1B9 JUMP JUMPDEST DUP3 MSTORE POP POP JUMP JUMPDEST PUSH0 PUSH1 0x40 DUP3 ADD SWAP1 POP DUP2 DUP2 SUB PUSH0 DUP4 ADD MSTORE PUSH2 0x200 DUP2 PUSH2 0x17C JUMP JUMPDEST SWAP1 POP PUSH2 0x20F PUSH1 0x20 DUP4 ADD DUP5 PUSH2 0x1DA JUMP JUMPDEST SWAP3 SWAP2 POP POP JUMP JUMPDEST PUSH32 0x422066756E310000000000000000000000000000000000000000000000000000 PUSH0 DUP3 ADD MSTORE POP JUMP JUMPDEST PUSH0 PUSH2 0x249 PUSH1 0x6 DUP4 PUSH2 0x144 JUMP JUMPDEST SWAP2 POP PUSH2 0x254 DUP3 PUSH2 0x215 JUMP JUMPDEST PUSH1 0x20 DUP3 ADD SWAP1 POP SWAP2 SWAP1 POP JUMP JUMPDEST PUSH0 PUSH1 0x40 DUP3 ADD SWAP1 POP DUP2 DUP2 SUB PUSH0 DUP4 ADD MSTORE PUSH2 0x276 DUP2 PUSH2 0x23D JUMP JUMPDEST SWAP1 POP PUSH2 0x285 PUSH1 0x20 DUP4 ADD DUP5 PUSH2 0x1DA JUMP JUMPDEST SWAP3 SWAP2 POP POP JUMP JUMPDEST PUSH32 0x412066756E320000000000000000000000000000000000000000000000000000 PUSH0 DUP3 ADD MSTORE POP JUMP JUMPDEST PUSH0 PUSH2 0x2BF PUSH1 0x6 DUP4 PUSH2 0x144 JUMP JUMPDEST SWAP2 POP PUSH2 0x2CA DUP3 PUSH2 0x28B JUMP JUMPDEST PUSH1 0x20 DUP3 ADD SWAP1 POP SWAP2 SWAP1 POP JUMP JUMPDEST PUSH0 DUP2 SWAP1 POP SWAP2 SWAP1 POP JUMP JUMPDEST PUSH0 PUSH2 0x2F8 PUSH2 0x2F3 PUSH2 0x2EE DUP5 PUSH2 0x2D5 JUMP JUMPDEST PUSH2 0x1B0 JUMP JUMPDEST PUSH2 0x1A7 JUMP JUMPDEST SWAP1 POP SWAP2 SWAP1 POP JUMP JUMPDEST PUSH2 0x308 DUP2 PUSH2 0x2DE JUMP JUMPDEST DUP3 MSTORE POP POP JUMP JUMPDEST PUSH0 PUSH1 0x40 DUP3 ADD SWAP1 POP DUP2 DUP2 SUB PUSH0 DUP4 ADD MSTORE PUSH2 0x325 DUP2 PUSH2 0x2B3 JUMP JUMPDEST SWAP1 POP PUSH2 0x334 PUSH1 0x20 DUP4 ADD DUP5 PUSH2 0x2FF JUMP JUMPDEST SWAP3 SWAP2 POP POP JUMP JUMPDEST PUSH32 0x412066756E310000000000000000000000000000000000000000000000000000 PUSH0 DUP3 ADD MSTORE POP JUMP JUMPDEST PUSH0 PUSH2 0x36E PUSH1 0x6 DUP4 PUSH2 0x144 JUMP JUMPDEST SWAP2 POP PUSH2 0x379 DUP3 PUSH2 0x33A JUMP JUMPDEST PUSH1 0x20 DUP3 ADD SWAP1 POP SWAP2 SWAP1 POP JUMP JUMPDEST PUSH0 PUSH1 0x40 DUP3 ADD SWAP1 POP DUP2 DUP2 SUB PUSH0 DUP4 ADD MSTORE PUSH2 0x39B DUP2 PUSH2 0x362 JUMP JUMPDEST SWAP1 POP PUSH2 0x3AA PUSH1 0x20 DUP4 ADD DUP5 PUSH2 0x2FF JUMP JUMPDEST SWAP3 SWAP2 POP POP JUMP INVALID LOG2 PUSH5 0x6970667358 0x22 SLT KECCAK256 DUP5 PUSH29 0xC59C90A1CDD064BAD1F7EC1FB6B91FF6B150BEC3EA70A4E832BF5644A9 0xBA PUSH5 0x736F6C6343 STOP ADDMOD BYTE STOP CALLER "
		},
		"gasEstimates": {
			"creation": {
				"codeDepositCost": "199600",
				"executionCost": "243",
				"totalCost": "199843"
			},
			"external": {
				"fun1()": "infinite",
				"fun2()": "infinite"
			}
		},
		"methodIdentifiers": {
			"fun1()": "446a45b7",
			"fun2()": "157b5167"
		}
	},
	"abi": [
		{
			"anonymous": false,
			"inputs": [
				{
					"indexed": false,
					"internalType": "string",
					"name": "name",
					"type": "string"
				},
				{
					"indexed": false,
					"internalType": "uint256",
					"name": "age",
					"type": "uint256"
				}
			],
			"name": "log",
			"type": "event"
		},
		{
			"inputs": [],
			"name": "fun1",
			"outputs": [],
			"stateMutability": "nonpayable",
			"type": "function"
		},
		{
			"inputs": [],
			"name": "fun2",
			"outputs": [],
			"stateMutability": "nonpayable",
			"type": "function"
		}
	]
}