{
	"data": {
		"bytecode": {
			"linkReferences": {},
			"object": "608060405234801561000f575f80fd5b50604051610914380380610914833981810160405281019061003191906101fb565b81818560028661004191906102c4565b815f908161004f91906104fb565b50806001819055505050816002908161006891906104fb565b50806003819055505050505050506105ca565b5f604051905090565b5f80fd5b5f80fd5b5f80fd5b5f80fd5b5f601f19601f8301169050919050565b7f4e487b71000000000000000000000000000000000000000000000000000000005f52604160045260245ffd5b6100da82610094565b810181811067ffffffffffffffff821117156100f9576100f86100a4565b5b80604052505050565b5f61010b61007b565b905061011782826100d1565b919050565b5f67ffffffffffffffff821115610136576101356100a4565b5b61013f82610094565b9050602081019050919050565b8281835e5f83830152505050565b5f61016c6101678461011c565b610102565b90508281526020810184848401111561018857610187610090565b5b61019384828561014c565b509392505050565b5f82601f8301126101af576101ae61008c565b5b81516101bf84826020860161015a565b91505092915050565b5f819050919050565b6101da816101c8565b81146101e4575f80fd5b50565b5f815190506101f5816101d1565b92915050565b5f805f806080858703121561021357610212610084565b5b5f85015167ffffffffffffffff8111156102305761022f610088565b5b61023c8782880161019b565b945050602061024d878288016101e7565b935050604085015167ffffffffffffffff81111561026e5761026d610088565b5b61027a8782880161019b565b925050606061028b878288016101e7565b91505092959194509250565b7f4e487b71000000000000000000000000000000000000000000000000000000005f52601160045260245ffd5b5f6102ce826101c8565b91506102d9836101c8565b92508282019050808211156102f1576102f0610297565b5b92915050565b5f81519050919050565b7f4e487b71000000000000000000000000000000000000000000000000000000005f52602260045260245ffd5b5f600282049050600182168061034557607f821691505b60208210810361035857610357610301565b5b50919050565b5f819050815f5260205f209050919050565b5f6020601f8301049050919050565b5f82821b905092915050565b5f600883026103ba7fffffffffffffffffffffffffffffffffffffffffffffffffffffffffffffffff8261037f565b6103c4868361037f565b95508019841693508086168417925050509392505050565b5f819050919050565b5f6103ff6103fa6103f5846101c8565b6103dc565b6101c8565b9050919050565b5f819050919050565b610418836103e5565b61042c61042482610406565b84845461038b565b825550505050565b5f90565b610440610434565b61044b81848461040f565b505050565b5b8181101561046e576104635f82610438565b600181019050610451565b5050565b601f8211156104b3576104848161035e565b61048d84610370565b8101602085101561049c578190505b6104b06104a885610370565b830182610450565b50505b505050565b5f82821c905092915050565b5f6104d35f19846008026104b8565b1980831691505092915050565b5f6104eb83836104c4565b9150826002028217905092915050565b610504826102f7565b67ffffffffffffffff81111561051d5761051c6100a4565b5b610527825461032e565b610532828285610472565b5f60209050601f831160018114610563575f8415610551578287015190505b61055b85826104e0565b8655506105c2565b601f1984166105718661035e565b5f5b8281101561059857848901518255600182019150602085019450602081019050610573565b868310156105b557848901516105b1601f8916826104c4565b8355505b6001600288020188555050505b505050505050565b61033d806105d75f395ff3fe608060405234801561000f575f80fd5b506004361061004a575f3560e01c806306fdde031461004e578063262a9dff1461006c5780634e70b1dc1461008a578063c15bae84146100a8575b5f80fd5b6100566100c6565b6040516100639190610259565b60405180910390f35b610074610152565b6040516100819190610291565b60405180910390f35b610092610158565b60405161009f9190610291565b60405180910390f35b6100b061015e565b6040516100bd9190610259565b60405180910390f35b600280546100d3906102d7565b80601f01602080910402602001604051908101604052809291908181526020018280546100ff906102d7565b801561014a5780601f106101215761010080835404028352916020019161014a565b820191905f5260205f20905b81548152906001019060200180831161012d57829003601f168201915b505050505081565b60035481565b60015481565b5f805461016a906102d7565b80601f0160208091040260200160405190810160405280929190818152602001828054610196906102d7565b80156101e15780601f106101b8576101008083540402835291602001916101e1565b820191905f5260205f20905b8154815290600101906020018083116101c457829003601f168201915b505050505081565b5f81519050919050565b5f82825260208201905092915050565b8281835e5f83830152505050565b5f601f19601f8301169050919050565b5f61022b826101e9565b61023581856101f3565b9350610245818560208601610203565b61024e81610211565b840191505092915050565b5f6020820190508181035f8301526102718184610221565b905092915050565b5f819050919050565b61028b81610279565b82525050565b5f6020820190506102a45f830184610282565b92915050565b7f4e487b71000000000000000000000000000000000000000000000000000000005f52602260045260245ffd5b5f60028204905060018216806102ee57607f821691505b602082108103610301576103006102aa565b5b5091905056fea26469706673582212201a99d51c47b824bc2462416252c60c141aa55eb749342973ffa70898d355935264736f6c634300081a0033",
			"opcodes": "PUSH1 0x80 PUSH1 0x40 MSTORE CALLVALUE DUP1 ISZERO PUSH2 0xF JUMPI PUSH0 DUP1 REVERT JUMPDEST POP PUSH1 0x40 MLOAD PUSH2 0x914 CODESIZE SUB DUP1 PUSH2 0x914 DUP4 CODECOPY DUP2 DUP2 ADD PUSH1 0x40 MSTORE DUP2 ADD SWAP1 PUSH2 0x31 SWAP2 SWAP1 PUSH2 0x1FB JUMP JUMPDEST DUP2 DUP2 DUP6 PUSH1 0x2 DUP7 PUSH2 0x41 SWAP2 SWAP1 PUSH2 0x2C4 JUMP JUMPDEST DUP2 PUSH0 SWAP1 DUP2 PUSH2 0x4F SWAP2 SWAP1 PUSH2 0x4FB JUMP JUMPDEST POP DUP1 PUSH1 0x1 DUP2 SWAP1 SSTORE POP POP POP DUP2 PUSH1 0x2 SWAP1 DUP2 PUSH2 0x68 SWAP2 SWAP1 PUSH2 0x4FB JUMP JUMPDEST POP DUP1 PUSH1 0x3 DUP2 SWAP1 SSTORE POP POP POP POP POP POP POP PUSH2 0x5CA JUMP JUMPDEST PUSH0 PUSH1 0x40 MLOAD SWAP1 POP SWAP1 JUMP JUMPDEST PUSH0 DUP1 REVERT JUMPDEST PUSH0 DUP1 REVERT JUMPDEST PUSH0 DUP1 REVERT JUMPDEST PUSH0 DUP1 REVERT JUMPDEST PUSH0 PUSH1 0x1F NOT PUSH1 0x1F DUP4 ADD AND SWAP1 POP SWAP2 SWAP1 POP JUMP JUMPDEST PUSH32 0x4E487B7100000000000000000000000000000000000000000000000000000000 PUSH0 MSTORE PUSH1 0x41 PUSH1 0x4 MSTORE PUSH1 0x24 PUSH0 REVERT JUMPDEST PUSH2 0xDA DUP3 PUSH2 0x94 JUMP JUMPDEST DUP2 ADD DUP2 DUP2 LT PUSH8 0xFFFFFFFFFFFFFFFF DUP3 GT OR ISZERO PUSH2 0xF9 JUMPI PUSH2 0xF8 PUSH2 0xA4 JUMP JUMPDEST JUMPDEST DUP1 PUSH1 0x40 MSTORE POP POP POP JUMP JUMPDEST PUSH0 PUSH2 0x10B PUSH2 0x7B JUMP JUMPDEST SWAP1 POP PUSH2 0x117 DUP3 DUP3 PUSH2 0xD1 JUMP JUMPDEST SWAP2 SWAP1 POP JUMP JUMPDEST PUSH0 PUSH8 0xFFFFFFFFFFFFFFFF DUP3 GT ISZERO PUSH2 0x136 JUMPI PUSH2 0x135 PUSH2 0xA4 JUMP JUMPDEST JUMPDEST PUSH2 0x13F DUP3 PUSH2 0x94 JUMP JUMPDEST SWAP1 POP PUSH1 0x20 DUP2 ADD SWAP1 POP SWAP2 SWAP1 POP JUMP JUMPDEST DUP3 DUP2 DUP4 MCOPY PUSH0 DUP4 DUP4 ADD MSTORE POP POP POP JUMP JUMPDEST PUSH0 PUSH2 0x16C PUSH2 0x167 DUP5 PUSH2 0x11C JUMP JUMPDEST PUSH2 0x102 JUMP JUMPDEST SWAP1 POP DUP3 DUP2 MSTORE PUSH1 0x20 DUP2 ADD DUP5 DUP5 DUP5 ADD GT ISZERO PUSH2 0x188 JUMPI PUSH2 0x187 PUSH2 0x90 JUMP JUMPDEST JUMPDEST PUSH2 0x193 DUP5 DUP3 DUP6 PUSH2 0x14C JUMP JUMPDEST POP SWAP4 SWAP3 POP POP POP JUMP JUMPDEST PUSH0 DUP3 PUSH1 0x1F DUP4 ADD SLT PUSH2 0x1AF JUMPI PUSH2 0x1AE PUSH2 0x8C JUMP JUMPDEST JUMPDEST DUP2 MLOAD PUSH2 0x1BF DUP5 DUP3 PUSH1 0x20 DUP7 ADD PUSH2 0x15A JUMP JUMPDEST SWAP2 POP POP SWAP3 SWAP2 POP POP JUMP JUMPDEST PUSH0 DUP2 SWAP1 POP SWAP2 SWAP1 POP JUMP JUMPDEST PUSH2 0x1DA DUP2 PUSH2 0x1C8 JUMP JUMPDEST DUP2 EQ PUSH2 0x1E4 JUMPI PUSH0 DUP1 REVERT JUMPDEST POP JUMP JUMPDEST PUSH0 DUP2 MLOAD SWAP1 POP PUSH2 0x1F5 DUP2 PUSH2 0x1D1 JUMP JUMPDEST SWAP3 SWAP2 POP POP JUMP JUMPDEST PUSH0 DUP1 PUSH0 DUP1 PUSH1 0x80 DUP6 DUP8 SUB SLT ISZERO PUSH2 0x213 JUMPI PUSH2 0x212 PUSH2 0x84 JUMP JUMPDEST JUMPDEST PUSH0 DUP6 ADD MLOAD PUSH8 0xFFFFFFFFFFFFFFFF DUP2 GT ISZERO PUSH2 0x230 JUMPI PUSH2 0x22F PUSH2 0x88 JUMP JUMPDEST JUMPDEST PUSH2 0x23C DUP8 DUP3 DUP9 ADD PUSH2 0x19B JUMP JUMPDEST SWAP5 POP POP PUSH1 0x20 PUSH2 0x24D DUP8 DUP3 DUP9 ADD PUSH2 0x1E7 JUMP JUMPDEST SWAP4 POP POP PUSH1 0x40 DUP6 ADD MLOAD PUSH8 0xFFFFFFFFFFFFFFFF DUP2 GT ISZERO PUSH2 0x26E JUMPI PUSH2 0x26D PUSH2 0x88 JUMP JUMPDEST JUMPDEST PUSH2 0x27A DUP8 DUP3 DUP9 ADD PUSH2 0x19B JUMP JUMPDEST SWAP3 POP POP PUSH1 0x60 PUSH2 0x28B DUP8 DUP3 DUP9 ADD PUSH2 0x1E7 JUMP JUMPDEST SWAP2 POP POP SWAP3 SWAP6 SWAP2 SWAP5 POP SWAP3 POP JUMP JUMPDEST PUSH32 0x4E487B7100000000000000000000000000000000000000000000000000000000 PUSH0 MSTORE PUSH1 0x11 PUSH1 0x4 MSTORE PUSH1 0x24 PUSH0 REVERT JUMPDEST PUSH0 PUSH2 0x2CE DUP3 PUSH2 0x1C8 JUMP JUMPDEST SWAP2 POP PUSH2 0x2D9 DUP4 PUSH2 0x1C8 JUMP JUMPDEST SWAP3 POP DUP3 DUP3 ADD SWAP1 POP DUP1 DUP3 GT ISZERO PUSH2 0x2F1 JUMPI PUSH2 0x2F0 PUSH2 0x297 JUMP JUMPDEST JUMPDEST SWAP3 SWAP2 POP POP JUMP JUMPDEST PUSH0 DUP2 MLOAD SWAP1 POP SWAP2 SWAP1 POP JUMP JUMPDEST PUSH32 0x4E487B7100000000000000000000000000000000000000000000000000000000 PUSH0 MSTORE PUSH1 0x22 PUSH1 0x4 MSTORE PUSH1 0x24 PUSH0 REVERT JUMPDEST PUSH0 PUSH1 0x2 DUP3 DIV SWAP1 POP PUSH1 0x1 DUP3 AND DUP1 PUSH2 0x345 JUMPI PUSH1 0x7F DUP3 AND SWAP2 POP JUMPDEST PUSH1 0x20 DUP3 LT DUP2 SUB PUSH2 0x358 JUMPI PUSH2 0x357 PUSH2 0x301 JUMP JUMPDEST JUMPDEST POP SWAP2 SWAP1 POP JUMP JUMPDEST PUSH0 DUP2 SWAP1 POP DUP2 PUSH0 MSTORE PUSH1 0x20 PUSH0 KECCAK256 SWAP1 POP SWAP2 SWAP1 POP JUMP JUMPDEST PUSH0 PUSH1 0x20 PUSH1 0x1F DUP4 ADD DIV SWAP1 POP SWAP2 SWAP1 POP JUMP JUMPDEST PUSH0 DUP3 DUP3 SHL SWAP1 POP SWAP3 SWAP2 POP POP JUMP JUMPDEST PUSH0 PUSH1 0x8 DUP4 MUL PUSH2 0x3BA PUSH32 0xFFFFFFFFFFFFFFFFFFFFFFFFFFFFFFFFFFFFFFFFFFFFFFFFFFFFFFFFFFFFFFFF DUP3 PUSH2 0x37F JUMP JUMPDEST PUSH2 0x3C4 DUP7 DUP4 PUSH2 0x37F JUMP JUMPDEST SWAP6 POP DUP1 NOT DUP5 AND SWAP4 POP DUP1 DUP7 AND DUP5 OR SWAP3 POP POP POP SWAP4 SWAP3 POP POP POP JUMP JUMPDEST PUSH0 DUP2 SWAP1 POP SWAP2 SWAP1 POP JUMP JUMPDEST PUSH0 PUSH2 0x3FF PUSH2 0x3FA PUSH2 0x3F5 DUP5 PUSH2 0x1C8 JUMP JUMPDEST PUSH2 0x3DC JUMP JUMPDEST PUSH2 0x1C8 JUMP JUMPDEST SWAP1 POP SWAP2 SWAP1 POP JUMP JUMPDEST PUSH0 DUP2 SWAP1 POP SWAP2 SWAP1 POP JUMP JUMPDEST PUSH2 0x418 DUP4 PUSH2 0x3E5 JUMP JUMPDEST PUSH2 0x42C PUSH2 0x424 DUP3 PUSH2 0x406 JUMP JUMPDEST DUP5 DUP5 SLOAD PUSH2 0x38B JUMP JUMPDEST DUP3 SSTORE POP POP POP POP JUMP JUMPDEST PUSH0 SWAP1 JUMP JUMPDEST PUSH2 0x440 PUSH2 0x434 JUMP JUMPDEST PUSH2 0x44B DUP2 DUP5 DUP5 PUSH2 0x40F JUMP JUMPDEST POP POP POP JUMP JUMPDEST JUMPDEST DUP2 DUP2 LT ISZERO PUSH2 0x46E JUMPI PUSH2 0x463 PUSH0 DUP3 PUSH2 0x438 JUMP JUMPDEST PUSH1 0x1 DUP2 ADD SWAP1 POP PUSH2 0x451 JUMP JUMPDEST POP POP JUMP JUMPDEST PUSH1 0x1F DUP3 GT ISZERO PUSH2 0x4B3 JUMPI PUSH2 0x484 DUP2 PUSH2 0x35E JUMP JUMPDEST PUSH2 0x48D DUP5 PUSH2 0x370 JUMP JUMPDEST DUP2 ADD PUSH1 0x20 DUP6 LT ISZERO PUSH2 0x49C JUMPI DUP2 SWAP1 POP JUMPDEST PUSH2 0x4B0 PUSH2 0x4A8 DUP6 PUSH2 0x370 JUMP JUMPDEST DUP4 ADD DUP3 PUSH2 0x450 JUMP JUMPDEST POP POP JUMPDEST POP POP POP JUMP JUMPDEST PUSH0 DUP3 DUP3 SHR SWAP1 POP SWAP3 SWAP2 POP POP JUMP JUMPDEST PUSH0 PUSH2 0x4D3 PUSH0 NOT DUP5 PUSH1 0x8 MUL PUSH2 0x4B8 JUMP JUMPDEST NOT DUP1 DUP4 AND SWAP2 POP POP SWAP3 SWAP2 POP POP JUMP JUMPDEST PUSH0 PUSH2 0x4EB DUP4 DUP4 PUSH2 0x4C4 JUMP JUMPDEST SWAP2 POP DUP3 PUSH1 0x2 MUL DUP3 OR SWAP1 POP SWAP3 SWAP2 POP POP JUMP JUMPDEST PUSH2 0x504 DUP3 PUSH2 0x2F7 JUMP JUMPDEST PUSH8 0xFFFFFFFFFFFFFFFF DUP2 GT ISZERO PUSH2 0x51D JUMPI PUSH2 0x51C PUSH2 0xA4 JUMP JUMPDEST JUMPDEST PUSH2 0x527 DUP3 SLOAD PUSH2 0x32E JUMP JUMPDEST PUSH2 0x532 DUP3 DUP3 DUP6 PUSH2 0x472 JUMP JUMPDEST PUSH0 PUSH1 0x20 SWAP1 POP PUSH1 0x1F DUP4 GT PUSH1 0x1 DUP2 EQ PUSH2 0x563 JUMPI PUSH0 DUP5 ISZERO PUSH2 0x551 JUMPI DUP3 DUP8 ADD MLOAD SWAP1 POP JUMPDEST PUSH2 0x55B DUP6 DUP3 PUSH2 0x4E0 JUMP JUMPDEST DUP7 SSTORE POP PUSH2 0x5C2 JUMP JUMPDEST PUSH1 0x1F NOT DUP5 AND PUSH2 0x571 DUP7 PUSH2 0x35E JUMP JUMPDEST PUSH0 JUMPDEST DUP3 DUP2 LT ISZERO PUSH2 0x598 JUMPI DUP5 DUP10 ADD MLOAD DUP3 SSTORE PUSH1 0x1 DUP3 ADD SWAP2 POP PUSH1 0x20 DUP6 ADD SWAP5 POP PUSH1 0x20 DUP2 ADD SWAP1 POP PUSH2 0x573 JUMP JUMPDEST DUP7 DUP4 LT ISZERO PUSH2 0x5B5 JUMPI DUP5 DUP10 ADD MLOAD PUSH2 0x5B1 PUSH1 0x1F DUP10 AND DUP3 PUSH2 0x4C4 JUMP JUMPDEST DUP4 SSTORE POP JUMPDEST PUSH1 0x1 PUSH1 0x2 DUP9 MUL ADD DUP9 SSTORE POP POP POP JUMPDEST POP POP POP POP POP POP JUMP JUMPDEST PUSH2 0x33D DUP1 PUSH2 0x5D7 PUSH0 CODECOPY PUSH0 RETURN INVALID PUSH1 0x80 PUSH1 0x40 MSTORE CALLVALUE DUP1 ISZERO PUSH2 0xF JUMPI PUSH0 DUP1 REVERT JUMPDEST POP PUSH1 0x4 CALLDATASIZE LT PUSH2 0x4A JUMPI PUSH0 CALLDATALOAD PUSH1 0xE0 SHR DUP1 PUSH4 0x6FDDE03 EQ PUSH2 0x4E JUMPI DUP1 PUSH4 0x262A9DFF EQ PUSH2 0x6C JUMPI DUP1 PUSH4 0x4E70B1DC EQ PUSH2 0x8A JUMPI DUP1 PUSH4 0xC15BAE84 EQ PUSH2 0xA8 JUMPI JUMPDEST PUSH0 DUP1 REVERT JUMPDEST PUSH2 0x56 PUSH2 0xC6 JUMP JUMPDEST PUSH1 0x40 MLOAD PUSH2 0x63 SWAP2 SWAP1 PUSH2 0x259 JUMP JUMPDEST PUSH1 0x40 MLOAD DUP1 SWAP2 SUB SWAP1 RETURN JUMPDEST PUSH2 0x74 PUSH2 0x152 JUMP JUMPDEST PUSH1 0x40 MLOAD PUSH2 0x81 SWAP2 SWAP1 PUSH2 0x291 JUMP JUMPDEST PUSH1 0x40 MLOAD DUP1 SWAP2 SUB SWAP1 RETURN JUMPDEST PUSH2 0x92 PUSH2 0x158 JUMP JUMPDEST PUSH1 0x40 MLOAD PUSH2 0x9F SWAP2 SWAP1 PUSH2 0x291 JUMP JUMPDEST PUSH1 0x40 MLOAD DUP1 SWAP2 SUB SWAP1 RETURN JUMPDEST PUSH2 0xB0 PUSH2 0x15E JUMP JUMPDEST PUSH1 0x40 MLOAD PUSH2 0xBD SWAP2 SWAP1 PUSH2 0x259 JUMP JUMPDEST PUSH1 0x40 MLOAD DUP1 SWAP2 SUB SWAP1 RETURN JUMPDEST PUSH1 0x2 DUP1 SLOAD PUSH2 0xD3 SWAP1 PUSH2 0x2D7 JUMP JUMPDEST DUP1 PUSH1 0x1F ADD PUSH1 0x20 DUP1 SWAP2 DIV MUL PUSH1 0x20 ADD PUSH1 0x40 MLOAD SWAP1 DUP2 ADD PUSH1 0x40 MSTORE DUP1 SWAP3 SWAP2 SWAP1 DUP2 DUP2 MSTORE PUSH1 0x20 ADD DUP3 DUP1 SLOAD PUSH2 0xFF SWAP1 PUSH2 0x2D7 JUMP JUMPDEST DUP1 ISZERO PUSH2 0x14A JUMPI DUP1 PUSH1 0x1F LT PUSH2 0x121 JUMPI PUSH2 0x100 DUP1 DUP4 SLOAD DIV MUL DUP4 MSTORE SWAP2 PUSH1 0x20 ADD SWAP2 PUSH2 0x14A JUMP JUMPDEST DUP3 ADD SWAP2 SWAP1 PUSH0 MSTORE PUSH1 0x20 PUSH0 KECCAK256 SWAP1 JUMPDEST DUP2 SLOAD DUP2 MSTORE SWAP1 PUSH1 0x1 ADD SWAP1 PUSH1 0x20 ADD DUP1 DUP4 GT PUSH2 0x12D JUMPI DUP3 SWAP1 SUB PUSH1 0x1F AND DUP3 ADD SWAP2 JUMPDEST POP POP POP POP POP DUP2 JUMP JUMPDEST PUSH1 0x3 SLOAD DUP2 JUMP JUMPDEST PUSH1 0x1 SLOAD DUP2 JUMP JUMPDEST PUSH0 DUP1 SLOAD PUSH2 0x16A SWAP1 PUSH2 0x2D7 JUMP JUMPDEST DUP1 PUSH1 0x1F ADD PUSH1 0x20 DUP1 SWAP2 DIV MUL PUSH1 0x20 ADD PUSH1 0x40 MLOAD SWAP1 DUP2 ADD PUSH1 0x40 MSTORE DUP1 SWAP3 SWAP2 SWAP1 DUP2 DUP2 MSTORE PUSH1 0x20 ADD DUP3 DUP1 SLOAD PUSH2 0x196 SWAP1 PUSH2 0x2D7 JUMP JUMPDEST DUP1 ISZERO PUSH2 0x1E1 JUMPI DUP1 PUSH1 0x1F LT PUSH2 0x1B8 JUMPI PUSH2 0x100 DUP1 DUP4 SLOAD DIV MUL DUP4 MSTORE SWAP2 PUSH1 0x20 ADD SWAP2 PUSH2 0x1E1 JUMP JUMPDEST DUP3 ADD SWAP2 SWAP1 PUSH0 MSTORE PUSH1 0x20 PUSH0 KECCAK256 SWAP1 JUMPDEST DUP2 SLOAD DUP2 MSTORE SWAP1 PUSH1 0x1 ADD SWAP1 PUSH1 0x20 ADD DUP1 DUP4 GT PUSH2 0x1C4 JUMPI DUP3 SWAP1 SUB PUSH1 0x1F AND DUP3 ADD SWAP2 JUMPDEST POP POP POP POP POP DUP2 JUMP JUMPDEST PUSH0 DUP2 MLOAD SWAP1 POP SWAP2 SWAP1 POP JUMP JUMPDEST PUSH0 DUP3 DUP3 MSTORE PUSH1 0x20 DUP3 ADD SWAP1 POP SWAP3 SWAP2 POP POP JUMP JUMPDEST DUP3 DUP2 DUP4 MCOPY PUSH0 DUP4 DUP4 ADD MSTORE POP POP POP JUMP JUMPDEST PUSH0 PUSH1 0x1F NOT PUSH1 0x1F DUP4 ADD AND SWAP1 POP SWAP2 SWAP1 POP JUMP JUMPDEST PUSH0 PUSH2 0x22B DUP3 PUSH2 0x1E9 JUMP JUMPDEST PUSH2 0x235 DUP2 DUP6 PUSH2 0x1F3 JUMP JUMPDEST SWAP4 POP PUSH2 0x245 DUP2 DUP6 PUSH1 0x20 DUP7 ADD PUSH2 0x203 JUMP JUMPDEST PUSH2 0x24E DUP2 PUSH2 0x211 JUMP JUMPDEST DUP5 ADD SWAP2 POP POP SWAP3 SWAP2 POP POP JUMP JUMPDEST PUSH0 PUSH1 0x20 DUP3 ADD SWAP1 POP DUP2 DUP2 SUB PUSH0 DUP4 ADD MSTORE PUSH2 0x271 DUP2 DUP5 PUSH2 0x221 JUMP JUMPDEST SWAP1 POP SWAP3 SWAP2 POP POP JUMP JUMPDEST PUSH0 DUP2 SWAP1 POP SWAP2 SWAP1 POP JUMP JUMPDEST PUSH2 0x28B DUP2 PUSH2 0x279 JUMP JUMPDEST DUP3 MSTORE POP POP JUMP JUMPDEST PUSH0 PUSH1 0x20 DUP3 ADD SWAP1 POP PUSH2 0x2A4 PUSH0 DUP4 ADD DUP5 PUSH2 0x282 JUMP JUMPDEST SWAP3 SWAP2 POP POP JUMP JUMPDEST PUSH32 0x4E487B7100000000000000000000000000000000000000000000000000000000 PUSH0 MSTORE PUSH1 0x22 PUSH1 0x4 MSTORE PUSH1 0x24 PUSH0 REVERT JUMPDEST PUSH0 PUSH1 0x2 DUP3 DIV SWAP1 POP PUSH1 0x1 DUP3 AND DUP1 PUSH2 0x2EE JUMPI PUSH1 0x7F DUP3 AND SWAP2 POP JUMPDEST PUSH1 0x20 DUP3 LT DUP2 SUB PUSH2 0x301 JUMPI PUSH2 0x300 PUSH2 0x2AA JUMP JUMPDEST JUMPDEST POP SWAP2 SWAP1 POP JUMP INVALID LOG2 PUSH5 0x6970667358 0x22 SLT KECCAK256 BYTE SWAP10 0xD5 SHR SELFBALANCE 0xB8 0x24 0xBC 0x24 PUSH3 0x416252 0xC6 0xC EQ BYTE 0xA5 MCOPY 0xB7 BLOBHASH CALLVALUE 0x29 PUSH20 0xFFA70898D355935264736F6C634300081A003300 "
		},
		"gasEstimates": {
			"creation": {
				"codeDepositCost": "165800",
				"executionCost": "infinite",
				"totalCost": "infinite"
			},
			"external": {
				"age()": "2425",
				"name()": "infinite",
				"num()": "2447",
				"str()": "infinite"
			}
		},
		"methodIdentifiers": {
			"age()": "262a9dff",
			"name()": "06fdde03",
			"num()": "4e70b1dc",
			"str()": "c15bae84"
		}
	},
	"abi": [
		{
			"inputs": [
				{
					"internalType": "string",
					"name": "_str",
					"type": "string"
				},
				{
					"internalType": "uint256",
					"name": "_num",
					"type": "uint256"
				},
				{
					"internalType": "string",
					"name": "_str2",
					"type": "string"
				},
				{
					"internalType": "uint256",
					"name": "_num2",
					"type": "uint256"
				}
			],
			"stateMutability": "nonpayable",
			"type": "constructor"
		},
		{
			"inputs": [],
			"name": "age",
			"outputs": [
				{
					"internalType": "uint256",
					"name": "",
					"type": "uint256"
				}
			],
			"stateMutability": "view",
			"type": "function"
		},
		{
			"inputs": [],
			"name": "name",
			"outputs": [
				{
					"internalType": "string",
					"name": "",
					"type": "string"
				}
			],
			"stateMutability": "view",
			"type": "function"
		},
		{
			"inputs": [],
			"name": "num",
			"outputs": [
				{
					"internalType": "uint256",
					"name": "",
					"type": "uint256"
				}
			],
			"stateMutability": "view",
			"type": "function"
		},
		{
			"inputs": [],
			"name": "str",
			"outputs": [
				{
					"internalType": "string",
					"name": "",
					"type": "string"
				}
			],
			"stateMutability": "view",
			"type": "function"
		}
	]
}