{
	"20to29/28_Calling_Parent_Function.sol": {
		"A": {
			"abi": [
				{
					"anonymous": false,
					"inputs": [
						{
							"indexed": false,
							"internalType": "string",
							"name": "name",
							"type": "string"
						},
						{
							"indexed": false,
							"internalType": "uint256",
							"name": "age",
							"type": "uint256"
						}
					],
					"name": "log",
					"type": "event"
				},
				{
					"inputs": [],
					"name": "fun1",
					"outputs": [],
					"stateMutability": "nonpayable",
					"type": "function"
				},
				{
					"inputs": [],
					"name": "fun2",
					"outputs": [],
					"stateMutability": "nonpayable",
					"type": "function"
				}
			],
			"devdoc": {
				"kind": "dev",
				"methods": {},
				"version": 1
			},
			"evm": {
				"assembly": "    /* \"20to29/28_Calling_Parent_Function.sol\":198:407  contract A{... */\n  mstore(0x40, 0x80)\n  callvalue\n  dup1\n  iszero\n  tag_1\n  jumpi\n  0x00\n  dup1\n  revert\ntag_1:\n  pop\n  dataSize(sub_0)\n  dup1\n  dataOffset(sub_0)\n  0x00\n  codecopy\n  0x00\n  return\nstop\n\nsub_0: assembly {\n        /* \"20to29/28_Calling_Parent_Function.sol\":198:407  contract A{... */\n      mstore(0x40, 0x80)\n      callvalue\n      dup1\n      iszero\n      tag_1\n      jumpi\n      0x00\n      dup1\n      revert\n    tag_1:\n      pop\n      jumpi(tag_2, lt(calldatasize, 0x04))\n      shr(0xe0, calldataload(0x00))\n      dup1\n      0x157b5167\n      eq\n      tag_3\n      jumpi\n      dup1\n      0x446a45b7\n      eq\n      tag_4\n      jumpi\n    tag_2:\n      0x00\n      dup1\n      revert\n        /* \"20to29/28_Calling_Parent_Function.sol\":334:404  function fun2() public virtual{... */\n    tag_3:\n      tag_5\n      tag_6\n      jump\t// in\n    tag_5:\n      stop\n        /* \"20to29/28_Calling_Parent_Function.sol\":256:326  function fun1() public virtual{... */\n    tag_4:\n      tag_7\n      tag_8\n      jump\t// in\n    tag_7:\n      stop\n        /* \"20to29/28_Calling_Parent_Function.sol\":334:404  function fun2() public virtual{... */\n    tag_6:\n        /* \"20to29/28_Calling_Parent_Function.sol\":380:396  log(\"A fun2\",21) */\n      0xb60e72ccf6d57ab53eb84d7e94a9545806ed7f93c4d5673f11a64f03471e584e\n        /* \"20to29/28_Calling_Parent_Function.sol\":393:395  21 */\n      0x15\n        /* \"20to29/28_Calling_Parent_Function.sol\":380:396  log(\"A fun2\",21) */\n      mload(0x40)\n      tag_10\n      swap2\n      swap1\n      tag_11\n      jump\t// in\n    tag_10:\n      mload(0x40)\n      dup1\n      swap2\n      sub\n      swap1\n      log1\n        /* \"20to29/28_Calling_Parent_Function.sol\":334:404  function fun2() public virtual{... */\n      jump\t// out\n        /* \"20to29/28_Calling_Parent_Function.sol\":256:326  function fun1() public virtual{... */\n    tag_8:\n        /* \"20to29/28_Calling_Parent_Function.sol\":302:318  log(\"A fun1\",21) */\n      0xb60e72ccf6d57ab53eb84d7e94a9545806ed7f93c4d5673f11a64f03471e584e\n        /* \"20to29/28_Calling_Parent_Function.sol\":315:317  21 */\n      0x15\n        /* \"20to29/28_Calling_Parent_Function.sol\":302:318  log(\"A fun1\",21) */\n      mload(0x40)\n      tag_13\n      swap2\n      swap1\n      tag_14\n      jump\t// in\n    tag_13:\n      mload(0x40)\n      dup1\n      swap2\n      sub\n      swap1\n      log1\n        /* \"20to29/28_Calling_Parent_Function.sol\":256:326  function fun1() public virtual{... */\n      jump\t// out\n        /* \"#utility.yul\":7:176   */\n    tag_15:\n        /* \"#utility.yul\":91:102   */\n      0x00\n        /* \"#utility.yul\":125:131   */\n      dup3\n        /* \"#utility.yul\":120:123   */\n      dup3\n        /* \"#utility.yul\":113:132   */\n      mstore\n        /* \"#utility.yul\":165:169   */\n      0x20\n        /* \"#utility.yul\":160:163   */\n      dup3\n        /* \"#utility.yul\":156:170   */\n      add\n        /* \"#utility.yul\":141:170   */\n      swap1\n      pop\n        /* \"#utility.yul\":7:176   */\n      swap3\n      swap2\n      pop\n      pop\n      jump\t// out\n        /* \"#utility.yul\":182:338   */\n    tag_16:\n        /* \"#utility.yul\":322:330   */\n      0x412066756e320000000000000000000000000000000000000000000000000000\n        /* \"#utility.yul\":318:319   */\n      0x00\n        /* \"#utility.yul\":310:316   */\n      dup3\n        /* \"#utility.yul\":306:320   */\n      add\n        /* \"#utility.yul\":299:331   */\n      mstore\n        /* \"#utility.yul\":182:338   */\n      pop\n      jump\t// out\n        /* \"#utility.yul\":344:709   */\n    tag_17:\n        /* \"#utility.yul\":486:489   */\n      0x00\n        /* \"#utility.yul\":507:573   */\n      tag_29\n        /* \"#utility.yul\":571:572   */\n      0x06\n        /* \"#utility.yul\":566:569   */\n      dup4\n        /* \"#utility.yul\":507:573   */\n      tag_15\n      jump\t// in\n    tag_29:\n        /* \"#utility.yul\":500:573   */\n      swap2\n      pop\n        /* \"#utility.yul\":582:675   */\n      tag_30\n        /* \"#utility.yul\":671:674   */\n      dup3\n        /* \"#utility.yul\":582:675   */\n      tag_16\n      jump\t// in\n    tag_30:\n        /* \"#utility.yul\":700:702   */\n      0x20\n        /* \"#utility.yul\":695:698   */\n      dup3\n        /* \"#utility.yul\":691:703   */\n      add\n        /* \"#utility.yul\":684:703   */\n      swap1\n      pop\n        /* \"#utility.yul\":344:709   */\n      swap2\n      swap1\n      pop\n      jump\t// out\n        /* \"#utility.yul\":715:801   */\n    tag_18:\n        /* \"#utility.yul\":761:768   */\n      0x00\n        /* \"#utility.yul\":790:795   */\n      dup2\n        /* \"#utility.yul\":779:795   */\n      swap1\n      pop\n        /* \"#utility.yul\":715:801   */\n      swap2\n      swap1\n      pop\n      jump\t// out\n        /* \"#utility.yul\":807:884   */\n    tag_19:\n        /* \"#utility.yul\":844:851   */\n      0x00\n        /* \"#utility.yul\":873:878   */\n      dup2\n        /* \"#utility.yul\":862:878   */\n      swap1\n      pop\n        /* \"#utility.yul\":807:884   */\n      swap2\n      swap1\n      pop\n      jump\t// out\n        /* \"#utility.yul\":890:950   */\n    tag_20:\n        /* \"#utility.yul\":918:921   */\n      0x00\n        /* \"#utility.yul\":939:944   */\n      dup2\n        /* \"#utility.yul\":932:944   */\n      swap1\n      pop\n        /* \"#utility.yul\":890:950   */\n      swap2\n      swap1\n      pop\n      jump\t// out\n        /* \"#utility.yul\":956:1116   */\n    tag_21:\n        /* \"#utility.yul\":1015:1024   */\n      0x00\n        /* \"#utility.yul\":1048:1110   */\n      tag_35\n        /* \"#utility.yul\":1066:1109   */\n      tag_36\n        /* \"#utility.yul\":1075:1108   */\n      tag_37\n        /* \"#utility.yul\":1102:1107   */\n      dup5\n        /* \"#utility.yul\":1075:1108   */\n      tag_18\n      jump\t// in\n    tag_37:\n        /* \"#utility.yul\":1066:1109   */\n      tag_20\n      jump\t// in\n    tag_36:\n        /* \"#utility.yul\":1048:1110   */\n      tag_19\n      jump\t// in\n    tag_35:\n        /* \"#utility.yul\":1035:1110   */\n      swap1\n      pop\n        /* \"#utility.yul\":956:1116   */\n      swap2\n      swap1\n      pop\n      jump\t// out\n        /* \"#utility.yul\":1122:1271   */\n    tag_22:\n        /* \"#utility.yul\":1218:1264   */\n      tag_39\n        /* \"#utility.yul\":1258:1263   */\n      dup2\n        /* \"#utility.yul\":1218:1264   */\n      tag_21\n      jump\t// in\n    tag_39:\n        /* \"#utility.yul\":1213:1216   */\n      dup3\n        /* \"#utility.yul\":1206:1265   */\n      mstore\n        /* \"#utility.yul\":1122:1271   */\n      pop\n      pop\n      jump\t// out\n        /* \"#utility.yul\":1277:1824   */\n    tag_11:\n        /* \"#utility.yul\":1480:1484   */\n      0x00\n        /* \"#utility.yul\":1518:1520   */\n      0x40\n        /* \"#utility.yul\":1507:1516   */\n      dup3\n        /* \"#utility.yul\":1503:1521   */\n      add\n        /* \"#utility.yul\":1495:1521   */\n      swap1\n      pop\n        /* \"#utility.yul\":1567:1576   */\n      dup2\n        /* \"#utility.yul\":1561:1565   */\n      dup2\n        /* \"#utility.yul\":1557:1577   */\n      sub\n        /* \"#utility.yul\":1553:1554   */\n      0x00\n        /* \"#utility.yul\":1542:1551   */\n      dup4\n        /* \"#utility.yul\":1538:1555   */\n      add\n        /* \"#utility.yul\":1531:1578   */\n      mstore\n        /* \"#utility.yul\":1595:1726   */\n      tag_41\n        /* \"#utility.yul\":1721:1725   */\n      dup2\n        /* \"#utility.yul\":1595:1726   */\n      tag_17\n      jump\t// in\n    tag_41:\n        /* \"#utility.yul\":1587:1726   */\n      swap1\n      pop\n        /* \"#utility.yul\":1736:1817   */\n      tag_42\n        /* \"#utility.yul\":1813:1815   */\n      0x20\n        /* \"#utility.yul\":1802:1811   */\n      dup4\n        /* \"#utility.yul\":1798:1816   */\n      add\n        /* \"#utility.yul\":1789:1795   */\n      dup5\n        /* \"#utility.yul\":1736:1817   */\n      tag_22\n      jump\t// in\n    tag_42:\n        /* \"#utility.yul\":1277:1824   */\n      swap3\n      swap2\n      pop\n      pop\n      jump\t// out\n        /* \"#utility.yul\":1830:1986   */\n    tag_23:\n        /* \"#utility.yul\":1970:1978   */\n      0x412066756e310000000000000000000000000000000000000000000000000000\n        /* \"#utility.yul\":1966:1967   */\n      0x00\n        /* \"#utility.yul\":1958:1964   */\n      dup3\n        /* \"#utility.yul\":1954:1968   */\n      add\n        /* \"#utility.yul\":1947:1979   */\n      mstore\n        /* \"#utility.yul\":1830:1986   */\n      pop\n      jump\t// out\n        /* \"#utility.yul\":1992:2357   */\n    tag_24:\n        /* \"#utility.yul\":2134:2137   */\n      0x00\n        /* \"#utility.yul\":2155:2221   */\n      tag_45\n        /* \"#utility.yul\":2219:2220   */\n      0x06\n        /* \"#utility.yul\":2214:2217   */\n      dup4\n        /* \"#utility.yul\":2155:2221   */\n      tag_15\n      jump\t// in\n    tag_45:\n        /* \"#utility.yul\":2148:2221   */\n      swap2\n      pop\n        /* \"#utility.yul\":2230:2323   */\n      tag_46\n        /* \"#utility.yul\":2319:2322   */\n      dup3\n        /* \"#utility.yul\":2230:2323   */\n      tag_23\n      jump\t// in\n    tag_46:\n        /* \"#utility.yul\":2348:2350   */\n      0x20\n        /* \"#utility.yul\":2343:2346   */\n      dup3\n        /* \"#utility.yul\":2339:2351   */\n      add\n        /* \"#utility.yul\":2332:2351   */\n      swap1\n      pop\n        /* \"#utility.yul\":1992:2357   */\n      swap2\n      swap1\n      pop\n      jump\t// out\n        /* \"#utility.yul\":2363:2910   */\n    tag_14:\n        /* \"#utility.yul\":2566:2570   */\n      0x00\n        /* \"#utility.yul\":2604:2606   */\n      0x40\n        /* \"#utility.yul\":2593:2602   */\n      dup3\n        /* \"#utility.yul\":2589:2607   */\n      add\n        /* \"#utility.yul\":2581:2607   */\n      swap1\n      pop\n        /* \"#utility.yul\":2653:2662   */\n      dup2\n        /* \"#utility.yul\":2647:2651   */\n      dup2\n        /* \"#utility.yul\":2643:2663   */\n      sub\n        /* \"#utility.yul\":2639:2640   */\n      0x00\n        /* \"#utility.yul\":2628:2637   */\n      dup4\n        /* \"#utility.yul\":2624:2641   */\n      add\n        /* \"#utility.yul\":2617:2664   */\n      mstore\n        /* \"#utility.yul\":2681:2812   */\n      tag_48\n        /* \"#utility.yul\":2807:2811   */\n      dup2\n        /* \"#utility.yul\":2681:2812   */\n      tag_24\n      jump\t// in\n    tag_48:\n        /* \"#utility.yul\":2673:2812   */\n      swap1\n      pop\n        /* \"#utility.yul\":2822:2903   */\n      tag_49\n        /* \"#utility.yul\":2899:2901   */\n      0x20\n        /* \"#utility.yul\":2888:2897   */\n      dup4\n        /* \"#utility.yul\":2884:2902   */\n      add\n        /* \"#utility.yul\":2875:2881   */\n      dup5\n        /* \"#utility.yul\":2822:2903   */\n      tag_22\n      jump\t// in\n    tag_49:\n        /* \"#utility.yul\":2363:2910   */\n      swap3\n      swap2\n      pop\n      pop\n      jump\t// out\n\n    auxdata: 0xa26469706673582212204738062c2172bef75aa5fef9936cc8a74e8244a2430ccc59b7ec723ce237156264736f6c634300081a0033\n}\n",
				"bytecode": {
					"linkReferences": {},
					"object": "6080604052348015600e575f80fd5b5061023d8061001c5f395ff3fe608060405234801561000f575f80fd5b5060043610610034575f3560e01c8063157b516714610038578063446a45b714610042575b5f80fd5b61004061004c565b005b61004a610086565b005b7fb60e72ccf6d57ab53eb84d7e94a9545806ed7f93c4d5673f11a64f03471e584e601560405161007c9190610165565b60405180910390a1565b7fb60e72ccf6d57ab53eb84d7e94a9545806ed7f93c4d5673f11a64f03471e584e60156040516100b691906101db565b60405180910390a1565b5f82825260208201905092915050565b7f412066756e3200000000000000000000000000000000000000000000000000005f82015250565b5f6101046006836100c0565b915061010f826100d0565b602082019050919050565b5f819050919050565b5f819050919050565b5f819050919050565b5f61014f61014a6101458461011a565b61012c565b610123565b9050919050565b61015f81610135565b82525050565b5f6040820190508181035f83015261017c816100f8565b905061018b6020830184610156565b92915050565b7f412066756e3100000000000000000000000000000000000000000000000000005f82015250565b5f6101c56006836100c0565b91506101d082610191565b602082019050919050565b5f6040820190508181035f8301526101f2816101b9565b90506102016020830184610156565b9291505056fea26469706673582212204738062c2172bef75aa5fef9936cc8a74e8244a2430ccc59b7ec723ce237156264736f6c634300081a0033",
					"opcodes": "PUSH1 0x80 PUSH1 0x40 MSTORE CALLVALUE DUP1 ISZERO PUSH1 0xE JUMPI PUSH0 DUP1 REVERT JUMPDEST POP PUSH2 0x23D DUP1 PUSH2 0x1C PUSH0 CODECOPY PUSH0 RETURN INVALID PUSH1 0x80 PUSH1 0x40 MSTORE CALLVALUE DUP1 ISZERO PUSH2 0xF JUMPI PUSH0 DUP1 REVERT JUMPDEST POP PUSH1 0x4 CALLDATASIZE LT PUSH2 0x34 JUMPI PUSH0 CALLDATALOAD PUSH1 0xE0 SHR DUP1 PUSH4 0x157B5167 EQ PUSH2 0x38 JUMPI DUP1 PUSH4 0x446A45B7 EQ PUSH2 0x42 JUMPI JUMPDEST PUSH0 DUP1 REVERT JUMPDEST PUSH2 0x40 PUSH2 0x4C JUMP JUMPDEST STOP JUMPDEST PUSH2 0x4A PUSH2 0x86 JUMP JUMPDEST STOP JUMPDEST PUSH32 0xB60E72CCF6D57AB53EB84D7E94A9545806ED7F93C4D5673F11A64F03471E584E PUSH1 0x15 PUSH1 0x40 MLOAD PUSH2 0x7C SWAP2 SWAP1 PUSH2 0x165 JUMP JUMPDEST PUSH1 0x40 MLOAD DUP1 SWAP2 SUB SWAP1 LOG1 JUMP JUMPDEST PUSH32 0xB60E72CCF6D57AB53EB84D7E94A9545806ED7F93C4D5673F11A64F03471E584E PUSH1 0x15 PUSH1 0x40 MLOAD PUSH2 0xB6 SWAP2 SWAP1 PUSH2 0x1DB JUMP JUMPDEST PUSH1 0x40 MLOAD DUP1 SWAP2 SUB SWAP1 LOG1 JUMP JUMPDEST PUSH0 DUP3 DUP3 MSTORE PUSH1 0x20 DUP3 ADD SWAP1 POP SWAP3 SWAP2 POP POP JUMP JUMPDEST PUSH32 0x412066756E320000000000000000000000000000000000000000000000000000 PUSH0 DUP3 ADD MSTORE POP JUMP JUMPDEST PUSH0 PUSH2 0x104 PUSH1 0x6 DUP4 PUSH2 0xC0 JUMP JUMPDEST SWAP2 POP PUSH2 0x10F DUP3 PUSH2 0xD0 JUMP JUMPDEST PUSH1 0x20 DUP3 ADD SWAP1 POP SWAP2 SWAP1 POP JUMP JUMPDEST PUSH0 DUP2 SWAP1 POP SWAP2 SWAP1 POP JUMP JUMPDEST PUSH0 DUP2 SWAP1 POP SWAP2 SWAP1 POP JUMP JUMPDEST PUSH0 DUP2 SWAP1 POP SWAP2 SWAP1 POP JUMP JUMPDEST PUSH0 PUSH2 0x14F PUSH2 0x14A PUSH2 0x145 DUP5 PUSH2 0x11A JUMP JUMPDEST PUSH2 0x12C JUMP JUMPDEST PUSH2 0x123 JUMP JUMPDEST SWAP1 POP SWAP2 SWAP1 POP JUMP JUMPDEST PUSH2 0x15F DUP2 PUSH2 0x135 JUMP JUMPDEST DUP3 MSTORE POP POP JUMP JUMPDEST PUSH0 PUSH1 0x40 DUP3 ADD SWAP1 POP DUP2 DUP2 SUB PUSH0 DUP4 ADD MSTORE PUSH2 0x17C DUP2 PUSH2 0xF8 JUMP JUMPDEST SWAP1 POP PUSH2 0x18B PUSH1 0x20 DUP4 ADD DUP5 PUSH2 0x156 JUMP JUMPDEST SWAP3 SWAP2 POP POP JUMP JUMPDEST PUSH32 0x412066756E310000000000000000000000000000000000000000000000000000 PUSH0 DUP3 ADD MSTORE POP JUMP JUMPDEST PUSH0 PUSH2 0x1C5 PUSH1 0x6 DUP4 PUSH2 0xC0 JUMP JUMPDEST SWAP2 POP PUSH2 0x1D0 DUP3 PUSH2 0x191 JUMP JUMPDEST PUSH1 0x20 DUP3 ADD SWAP1 POP SWAP2 SWAP1 POP JUMP JUMPDEST PUSH0 PUSH1 0x40 DUP3 ADD SWAP1 POP DUP2 DUP2 SUB PUSH0 DUP4 ADD MSTORE PUSH2 0x1F2 DUP2 PUSH2 0x1B9 JUMP JUMPDEST SWAP1 POP PUSH2 0x201 PUSH1 0x20 DUP4 ADD DUP5 PUSH2 0x156 JUMP JUMPDEST SWAP3 SWAP2 POP POP JUMP INVALID LOG2 PUSH5 0x6970667358 0x22 SLT KECCAK256 SELFBALANCE CODESIZE MOD 0x2C 0x21 PUSH19 0xBEF75AA5FEF9936CC8A74E8244A2430CCC59B7 0xEC PUSH19 0x3CE237156264736F6C634300081A0033000000 "
				},
				"gasEstimates": {
					"creation": {
						"codeDepositCost": "114600",
						"executionCost": "157",
						"totalCost": "114757"
					},
					"external": {
						"fun1()": "2424",
						"fun2()": "2402"
					}
				},
				"methodIdentifiers": {
					"fun1()": "446a45b7",
					"fun2()": "157b5167"
				}
			},
			"storageLayout": {
				"storage": [],
				"types": null
			},
			"userdoc": {
				"kind": "user",
				"methods": {},
				"version": 1
			}
		}
	}
}